:100000000C94FD0D0C94250E0C94250E0C94151FCC
:100010000C94250E0C942D1F0C94250E0C94250E7B
:100020000C94250E0C94250E0C94250E0C94DA24B9
:100030000C94250E0C94250E0C94250E0C94250E74
:100040000C942F330C94250E0C94250E0C94250E35
:100050000C94250E0C94A61E0C94250E0C94250EC3
:100060000C94B61F0C94250EFC0F031011102410D5
:10007000321040104E10FD12261316136F136F131B
:100080006F131A132B1489178E17B017BB179D17F0
:10009000B317D117E025CF25D725E025CF25E025BB
:1000A000CF25C526D626F02629274D274D274D27B3
:1000B000B427B427B427B42704104080C0E0F0FC74
:1000C000000005000E001B002E004D007B00C30049
:1000D0003201DD01E4027904E806A80A6F10541920
:1000E0000405070230840001FF02FF00FE0101FE4B
:1000F00000FF02FF010080808080808080808080FF
:1001000080808080808080808080808080808080EF
:1001100080808080808080808080808080808080DF
:1001200080808080808080808080808080808080CF
:100130008080808080807F7F7F7F7F7F7F7F7F7FC9
:100140007F7F7F7F7F7F7F7F7F7F7F7F7F7F7F7FBF
:100150007F7F7F7F7F7F7F7F7F7F7F7F7F7F7F7FAF
:100160007F7F7F7F7F7F7F7F7F7F7F7F7F7F7F7F9F
:100170007F7F7F7F7F7F32535658595A5B5C5D5D2E
:100180005D5E5E5E5E5E5E5E5E5D5D5D5D5D5C5C99
:100190005B5B5B5A5A5B04F4F2F0EEEDECEBEAEADF
:1001A000E9E9E8E8E8E8E8E8E8E8E8F24A4E505229
:1001B00053545556575812F9F8F6F5F4F3F3F2F292
:1001C000F2F1F1F1F1F1F1F0F0F1F1F0F1F1F0F122
:1001D000F1F1F0F1F1EF938886858382828281814B
:1001E000818081818181818282828293EAEDEFF236
:1001F000F3F4F5F6F6F663686B6D6F727476797AE0
:100200003500010507F28C9295999CA0A4A7ABAE8E
:10021000B2B5B8BCBFE049494C4E515356595B5D2D
:10022000606265676B53ECF2F4F7F9818084888B28
:100230008F93979B9DB528272B2E313336393B3E24
:10024000404346494C3FCED4D7DADEE1E4E7EAED5D
:10025000F0F4F7FAFD000205080B0E111416191C34
:10026000202225282B26B0B4B7BBBEC1C4C8CBCF33
:10027000D2D5D9DCDFE6307F7F7F7F7F7E7E7E7EBA
:100280007D7D7D7D7C7C7C7C7B7B7B7A7A7A7A79B8
:1002900079797978787B0BD2D3D3D3D3D3D3D3D412
:1002A000D4D4D4D4D4D4D4D4D4D5D5D5D5D5D5D507
:1002B000D5D5D5D5D6D6D6D6D6D6D6D6D6D6D6D7E1
:1002C000D7D7D7D7D7D7D7D7D7D7D7D8D8D8D8D8B9
:1002D000D8D8D8D8D8D8D8D9D9D9D9D9D9D9D9D995
:1002E000D9D9D9DADADADADADADADADADADADADB70
:1002F000DBDBDBDBDBDC80828486888A8C8E909281
:100300009496989A9C9EA0A2A4A6A8AAACAEB0B2BD
:10031000B4B6B8BABCBEC0C2C4C6C8CACCCED0D2AD
:10032000D4D6D8DADCDEE0E2E4E6E8EAECEEF0F29D
:10033000F4F6F8FAFCFE00020406080A0C0E10128D
:100340001416181A1C1E20222426282A2C2E30327D
:100350003436383A3C3E40424446484A4C4E50526D
:100360005456585A5C5E60626466686A6C6E70725D
:100370007476787A7C7E0306080B0D0F1215181A16
:100380001D1F222427292C2F313436383B3E404371
:100390004547494C4E51535557595B5E6062646600
:1003A00067696B6D6F71727444C780A4D3E9E8E22A
:1003B000E3EF000B0C0600FAECBCA3ADBDC6C8C948
:1003C000CCD4DCE0E1DFDCDAD9D9D9DADBCBA59417
:1003D000A1B4BBBCBABCC1C7CBCCCBCACACBCCCEF8
:1003E000D0D2D4D7D9DCDFE2E4E6E8E9ECEEF0F2F3
:1003F000F4F7F9FCFE008D81818385888B8E9296BF
:100400009B9FA3A8ADB2B7BCC1C6CBD0D5DADFE401
:10041000EAEFF4F9FE02070C11161B20252A2F34EF
:1004200017E1E3E7EAEEF2F7FBFF03080C11161BF6
:100430001F24292E3333E4E2E5E9EDF0F4F9FD0160
:10044000050A0F13181D22262B3035F8E1E4E7EAE0
:10045000EEF2F7FBFF03080C11161B1F252A2E33A3
:10046000383D41464B5055595E63686C71411D1FC4
:100470002226292D3134353C4145494D505355589C
:100480005B5D5F626466686A6C6E707173757778C5
:100490007A7C7E7F7F5A06040404040607080A0B50
:1004A0000D0F11131517191B1D1F212426292B2D84
:1004B0002F3234363826CBCACACBCCCDCED0D2D40C
:1004C000D6D8DADDDFE1E4E6E9EBEEF0F3F5F8FAB1
:1004D000FDFF010405F88A8786868788898A8C8EC5
:1004E00090929496989A9D9FA2A4A7A9ABAEB0B300
:1004F000B6B8BBBEC0C4FBF4EEE8E2DCD9D6D3D0BC
:10050000C5BCB7B3C1C9CACAAB9B9895C1D8DBDE1D
:10051000A6888887D1F9FD00A487898CF81C1F2242
:10052000BA989CA10D353636D8B7BDC418373531C9
:10053000F6E2E9EF121C16100A04FFFB162A30350A
:1005400000E4E2E12B565A5D02DDDEE04674767788
:1005500014EBEFF2537F7F7D1B03060B6077747003
:100560002B191B1D4F5B56502B1F1F1E2F312A248A
:1005700016100C07050000060C13191F252B313629
:100580003C41474C51555A5E62666A6D707375788E
:100590007A7B7D7E7E7F7F7F7E7E7D7B7A787573A2
:1005A000706D6A66625E5A55514C47413C36312B3C
:1005B000251F19130C0600FAF4EDE7E1DBD5CFCACD
:1005C000C4BFB9B4AFABA6A29E9A9693908D8B8808
:1005D00086858382828181818282838586888B8DD4
:1005E0009093969A9EA2A6ABAFB4B9BFC4CACFD51A
:1005F000DBE1E7EDF4FA010D1A262E31312F2D2B18
:100600002B2D343C4757626C727473706B6561605C
:1006100063686F777E7F7F7F7F7F786D645E5C5CD1
:100620006064686C6D6A63594D40342A232020222F
:10063000242626231B0FFEEDE1D7D3D3D4D6D9DA57
:10064000D7D1C9BEB2A598928F9092979DA1A2A032
:100650009C92898281818181818890989FA2A29FAA
:100660009A9592909297A0ADBBC7D1D8DBDCDBD82E
:10067000D6D6D9DFE9F70F2B312D2B2E31302F3283
:1006800034343335373837393C3D3D3E42444446B7
:100690004C505054657B7F705B4F4C49423D3C3B16
:1006A000373332312E2B2A2A28252424221F1E1FBD
:1006B0001E1A181C1C0CF0D7CFD3D5D1CFD0D1CF58
:1006C000CCCCCDCBC8C8C9C7C4C3C3C1BEBCBCBADF
:1006D000B4B0AFAA9B878090A8B2B4B7BDC2C4C55E
:1006E000CACDCECFD1D4D6D6D8DBDCDCDDE1E2E199
:1006F000E2E7E8E5E3F1BC80FE0303030303030341
:1007000003030303030303030303030303030202BB
:1007100002020202020202020202020202020202B9
:1007200002020202020202020202010101010101AF
:1007300001010101010101010101010101010101A9
:100740000101010101010101010101010101010199
:100750000101010100000000000000000000000095
:100760000000000000000000000000000000000089
:10077000000000000105F9DDC9C2C8D9F20A2954F8
:10078000737F78603C10E6BEA3959298A8C5E90AED
:1007900028404F5551443018FEE5D4C8C2C3CBD9C8
:1007A000EAFC0D1B272D2D281F1405F8EDE5E0DFD1
:1007B000E1E8F0F9010A11161816130D0600F9F414
:1007C000F1EFEFF2F5FAFF03070A0C0C0B08050135
:1007D000FFFCF9F8F7F8F9FBFE0002040506060530
:1007E000030200FFFDFCFBFCFCFDFE000002020317
:1007F0000303020100000C1A20211F1D1A1B1B19E4
:100800001613100D0C0E10100E0C0B09080A0B0B12
:100810000A09080707090B0B0A0806050407090956
:10082000070503020103060605030201000407078A
:1008300006030100FF000303020000FFFF000304A2
:10084000020100FFFE0002020100FFFEFEFF0000A9
:100850000000FFFEFE0003030200FFFEFE00030394
:100860000100FFFDFDFF010100FFFEFEFACB9780B6
:100870008495ACC6DEF60000000000000000000019
:100880000000000000000000000000000000000068
:100890000000000000000000000000000000000058
:1008A0000000000000000000000000000000000048
:1008B0000000000000000000000000000000000038
:1008C0000000000000000000000000000000000028
:1008D0000000000000000000000000000000000018
:1008E0000000000000000000000000000000000008
:1008F000000000000000CEB09D8283B7D8001EF13A
:1009000001160E0818F2D8D7F9E3CACCD8BFCAEF3F
:10091000E7E1FBF60411ECF1FADFD8C0A598B3B615
:10092000E21D1DF7EAE2CEF10DF90B17E0C0B9CCDC
:10093000D7EF0F1A260D1F420E19F7EFFC48532868
:10094000223A5D54310E0AE6E9F8FE3D63475979D3
:100950007F7722011E3921FDEF190C051BF7BE0A16
:100960001DF3CCD7F6D0EC343D1E0B22323E564759
:1009700013FDD9FA2C1450525F6E6D3BF7F7F7F761
:10098000C48082838486C4DF1A56551CFDFDFDFD9C
:10099000324C4B4B4A4948481FFDFDA7A6A7A8A8C3
:1009A000E93C3B3B3A3A00E2F80E0E0E0E0E0E0EFC
:1009B000F02022222122CECAE1FF0357555554537D
:1009C0004C4242414013CBCCCCCDCD022524242433
:1009D00029E2E2E3E3E3E4E4B28485B4FCFCFCFC5A
:1009E000CE8F909192BD08080808080808080807EB
:1009F000F0FBFBFBFCFA03090F161C22272D3338F2
:100A00001AE7D4D655585C6064676A6C6F71737569
:100A1000767778FC878E9090917B7F7D7B7875725E
:100A20006E6B67635E5A554BEBFC02070B0F10129F
:100A300014120F0B0702FCF6F0EAE4DFDBD7D3D386
:100A4000D3D6D8DBE0E5EBF6C4989592908D8C8AEE
:100A50008988878787878727777474766C83898CE2
:100A60009093979BA0A4A9AFB4B9BEC4094D3921F6
:100A7000DDE4EBF1F7FD517B7F1E03CCD126F2FBC9
:100A8000005123670A140A6063C68BE402CCB69F48
:100A9000F8300E4DE8E16F243FDE043BDD0335D135
:100AA000D96706FEFFA85375580CFEAF63205F0D93
:100AB000747EEF677F65A1809510858CF19EDD9532
:100AC0004D06F8AC8AA3540604FC962332CEFC27CC
:100AD000C6FA26C4DC8E1B1CB8F2D0035F4D37FF6C
:100AE000157547A19DF2EBF99BDEAFFD0512D92DDF
:100AF0003801E9838486202E0F02F3D5D8EEF3085F
:100B0000262B00DCCFC6C8ED36432A18EA9488A20B
:100B1000BEE41735352A2C3937383818FAE6CBC0F9
:100B2000E300184157371A07F6F31D3F483C20EF02
:100B3000D3C8CF243F525624F1BD80A0D1F5205216
:100B4000463617F5DAF7E8DF1BF3E6F2C9C5041DF0
:100B500028596C2E04F0C0AAF801F04C39C5DAFA15
:100B6000B1C1352D023208BAD5DCA9E732130740EE
:100B700016BEBFE5CFDD08253B52697A7F7F7F7FB8
:100B80007F7F7F7B6E5D4D3D2E21140A03FEFBFAB5
:100B9000FAFBFE0105080B0D0C0B080300FAF3ED40
:100BA000E4DCD7CFC9C4BFBDBEBEC0C3C6CAD1D6A0
:100BB000DCE2E8F0F6FD060C131A20262B31373B59
:100BC0003D414242433F3B362F272219100B04FF81
:100BD000FBF5F3F2F2F3F7FAFE010405040300FB60
:100BE000F3E9DCCFC0B0A0908480818181808081D6
:100BF0008B9DB5CCE3FDAD88858091A6989BB4BC58
:100C0000B9BEB0968E92949FA4938388949C9F9B28
:100C10008E92A9C3DBFA0C13130F06FAF0EAE9ED82
:100C2000F7030C1012151A1C1B1A16100B080605D8
:100C3000060605050301FFFDFDFCFCFCFCFBF8F4CA
:100C4000EFEAE7E6E7EAEFF1F3FB07111819150CF5
:100C500002F7F0EEF2FF17344E67756D636366724C
:100C60007F745F5B676A6F6D5642423F42596758B7
:100C7000617577727322111E2021222223242425DC
:100C80002525252525252524242423232222212129
:100C900020201F1E1D2B46453E38322D2824211EA4
:100CA0001C1A18161514131211100F0F0E0E0D0D1D
:100CB0000C0C0B0A0A152B2D27221D1914110F0DD0
:100CC0000B090807060504040303020201010101E0
:100CD0000000010304DC91808184888C91969A9EA7
:100CE000A3A7ACB0B4B7BBBFC3C7CACDD1D4D7DA02
:100CF000DEE1E4E6E9F8D48C808B969A9FA8ABA756
:100D0000A29EA1AAB6C4D0D9DCDBD8D8DFEDF90405
:100D100010151613100E0D0A050409141D2226299C
:100D200029251C100701FCF8F8F7F4ECE7E8F1F9C5
:100D3000FBFB031C2612EADBE8FF05050811191965
:100D4000130B09090704FEF8EFE3DBD7D8DBDFE577
:100D5000EEF9FDFBF6F4F3F1EDEBEDF2FF0A1523EE
:100D60002929262428323D4B5760615D5754575F2F
:100D70006468747E6D300A1D2D3C4B59646D757826
:100D8000756D5D4A3B312C2E343D4852585C5B58A2
:100D900054514C443A2F241B161413131414120DDF
:100DA00003F6E0C7B3A398939395979997928B8393
:100DB00080848E9EAFC1D5E9FA0A1B2B3945505865
:100DC0005A564D413833343A414749423218F6D3E6
:100DD000B8A69E9FA6AFBCC8D4DFEBF700080F11E2
:100DE0000E06F7E3D2C6BEBBBCC0C5C8C8C5BEB8F8
:100DF000B5B9C3D3E3F519405A6C787D7F7E7C7B0F
:100E00007B7B7B7A7771675A4A362009EED3BDAB7C
:100E10009C9088838284888E959EA8B3BFCAD5DFB4
:100E2000EAF5FF0A16212B353F49545E676E747848
:100E30007A7A766E6355443019FFE3CCB7A5978D67
:100E4000868382838485868686888C94A3B9D6F926
:100E5000224963747D7F7F7D7C7D7A6F5527EBA56A
:100E6000859FE6376F7644FBC29D8A848486878798
:100E7000888E9BB0CEF1DB9A809ED9183421E6A3F0
:100E80008599D7183829F0AC8A9AD511383001BD28
:100E9000909AD20F3A3609C69596C80D3B3B12CFB1
:100EA0009B97C60A39421ADFA598C307384522E73F
:100EB000AB99B9FC374A2FF4BCAAC500374B3705AC
:100EC000D8C2D607374B3C14EDD8E6083249422346
:100ED00000EDF5103245422B0E0002183141403032
:100EE0001C101220303B3C34282021283036373368
:100EF0002F2E2F31301109313B2527392EFCD0C838
:100F0000D9DDC6CCF005091D393C322802B38590E5
:100F1000A0A2B9E2FBF0D6D1F81D2A2F3635241055
:100F200002F7F9131A00FA1A2C1E141813FDE3DA4B
:100F3000E4F401121616284C6F75727D700D9880BE
:100F40008B898DB1D7E7EAEDFB0B1C251B05EFE87C
:100F5000EDE2D2E50902E9F0070900F4DECCCBD3DB
:100F6000D6E3072B2A12041D465C607079510CDB16
:100F7000CEC4C8E1F5F923E5FFCF832931EA3E303D
:100F80000B35B8EE61CFB8F4C9FE06E56B42DF144D
:100F9000FB0631ADD22FB3B02A234317E74314CD5C
:100FA0000DFCE00190D25302FA4C1920F6CF37160F
:100FB000ADD9DAE51DDC237A00D7290313F9BEF198
:100FC000FAAEE21F3A4AF1F158FCBE2901D5E19C84
:100FD000E353FE1B3D0E2BE1C0670995F5CBD820EE
:100FE000DE357FEBF015EE3AEEA620E590031C32DD
:100FF0005DDB0351DBDD2F6A7F7D74717477757360
:1010000072736A470BC594828184868B949D9F98E6
:10101000909CC50341677577736857443D4559688F
:101020005C2FF5BFA19AA0B0C5D9E5DEC6A896A8E9
:10103000D609324545381E04F5F810365B6A532749
:10104000FFE4E0ED031D2E3120FACAA297AFD1EBE9
:10105000F2E7D3BFB1AFB9D7104F74755B41353BE1
:10106000506572766E5620D99F848BA0ABA8998A62
:1010700083828591AFE705111C27333D48535E609D
:10108000ECFA0510B1A3B0BBC8D4E0EBF7020D1821
:10109000242F3A4450EEE1EDF9030E1A2616B6C39A
:1010A000D0DBE6F3FF0915202B350AC8D4DFEBF7B8
:1010B000010C18242E3944F8D6E2EFFA04101C2053
:1010C000ACB9C6D1DCE9F5000B17222C38434D57DB
:1010D0005CE8F4FF0AAD9DAAB7C3CEDBE7F2FD08DA
:1010E000141F2935404B56616B7418808D99A6B337
:1010F000BFCAD7E3EEF90FF06841774186419541C9
:10110000A541B441C341D241E141F14100420F4206
:101110001E422E423D424C425C426B427A428A421F
:101120009942A842B842C742D742E642F642054336
:10113000154324433443434353436243724381433F
:101140009143A143B043C043D043DF43EF43FF4348
:101150000E441E442E443E444D445D446D447D4443
:101160008D449C44AC44BC44CC44DC44EC44FC443E
:101170000C451C452C453C454C455C456C457C4527
:101180008C459C45AC45BC45CC45DC45ED45FD4515
:101190000D461D462D463D464E465E466E467F46F2
:1011A0008F469F46AF46C046D046E146F1460147CE
:1011B000124722473347434754476447744785479C
:1011C0009647A647B747C747D847E847F9470A4869
:1011D0001A482B483C484C485D486E487F488F4829
:1011E000A048B148C248D248E348F44805491649E6
:1011F0002749384949495A496B497C498D499E4993
:10120000AF49C049D149E249F349044A154A264A3F
:10121000374A484A5A4A6B4A7C4A8D4A9E4AB04AE3
:10122000C14AD24AE34AF54A064B174B294B3A4B7F
:101230004C4B5D4B6E4B804B914BA34BB44BC64B11
:10124000D74BE94BFA4B0C4C1D4C2F4C414C524C9C
:10125000644C764C874C994CAB4CBC4CCE4CE04C1F
:10126000F24C034D154D274D394D4B4D5D4D6E4D97
:10127000804D924DA44DB64DC84DDA4DEC4DFE4D0E
:10128000104E224E344E464E584E6B4E7D4E8F4E73
:10129000A14EB34EC54ED84EEA4EFC4E0E4F214FD6
:1012A000334F454F574F6A4F7C4F8F4FA14FB34F2E
:1012B000C64FD84FEB4FFD4F10502250355047507E
:1012C0005A506C507F509150A450B750C950DC50C8
:1012D000EF500151145127513A514C515F51725105
:1012E00085519851AB51BD51D051E351F65109523E
:1012F0001C522F524252555268527B528E52A1526A
:10130000B452C852DB52EE520153145327533B538D
:101310004E536153745388539B53AE53C253D553AA
:10132000E853FC530F54235436544A545D547154BB
:1013300084549854AB54BF54D254E654FA540D55C7
:101340002155355548555C55705583559755AB55C6
:10135000BF55D355E655FA550E56225636564A56BF
:101360005E56725686569A56AE56C256D656EA56AD
:10137000FE56125726573A574F57635777578B5792
:101380009F57B457C857DC57F157055819582E586E
:10139000425856586B587F589458A858BD58D15841
:1013A000E658FA580F59235938594D596159765909
:1013B0008B599F59B459C959DE59F259075A1C5AC9
:1013C000315A465A5A5A6F5A845A995AAE5AC35A7F
:1013D000D85AED5A025B175B2C5B415B565B6B5B2B
:1013E000815B965BAB5BC05BD55BEB5B005C155CCC
:1013F0002A5C405C555C6A5C805C955CAA5CC05C65
:10140000D55CEB5C005D165D2B5D415D565D6C5DF2
:10141000815D975DAD5DC25DD85DEE5D035E195E79
:101420002F5E455E5B5E705E865E9C5EB25EC85EF1
:10143000DE5EF45E0A5F205F365F4C5F625F785F5E
:101440008E5FA45FBA5FD05FE65FFC5F12602960C9
:101450003F6055606B6082609860AE60C560DB6025
:10146000F16008611E6135614B61626178618F6175
:10147000A561BC61D261E961006216622D624462BD
:101480005A62716288629F62B662CC62E362FA62FB
:10149000116328633F6356636D6384639B63B26328
:1014A000C963E063F7630E6425643C6453646B6452
:1014B00082649964B064C864DF64F6640D65256570
:1014C0003C6554656B6582659A65B165C965E06583
:1014D000F865106627663F6656666E6686669D6688
:1014E000B566CD66E566FC6614672C6744675C6785
:1014F00074678C67A467BC67D467EC6704681C6872
:1015000034684C6864687C689468AC68C468DD685A
:10151000F5680D6925693E6956696E6987699F6935
:10152000B869D069E969016A1A6A326A4B6A636A02
:101530007C6A946AAD6AC66ADE6AF76A106B296BC8
:10154000416B5A6B736B8C6BA56BBD6BD66BEF6B82
:10155000086C216C3A6C536C6C6C856C9E6CB86C2E
:10156000D16CEA6C036D1C6D356D4F6D686D816DCE
:101570009B6DB46DCD6DE76D006E196E336E4C6E64
:10158000666E7F6E996EB26ECC6EE66EFF6E196FF0
:10159000336F4C6F666F806F9A6FB36FCD6FE76F6D
:1015A00001701B7035704F70697083709D70B770DB
:1015B000D170EB7005711F71397153716E71887143
:1015C000A271BC71D771F1710B72267240725A729E
:1015D00075728F72AA72C472DF72F97214732E73ED
:1015E000497364737E739973B473CF73E97304742E
:1015F0001F743A74557470748A74A574C074DB7463
:10160000F67411752C75487563757E759975B4758A
:10161000CF75EB75067621763C76587673768E76A6
:10162000AA76C576E176FC76187733774F776A77B6
:101630008677A277BD77D977F57710782C784878B8
:10164000647880789B78B778D378EF780B792779AE
:1016500043795F797B799779B379CF79EC79087A97
:10166000247A407A5D7A797A957AB17ACE7AEA7A72
:10167000077B237B407B5C7B797B957BB27BCE7B3E
:10168000EB7B077C247C417C5E7C7A7C977CB47C01
:10169000D17CEE7C0A7D277D447D617D7E7D9B7DB6
:1016A000B87DD57DF27D107E2D7E4A7E677E847E5C
:1016B000A17EBF7EDC7EF97E177F347F527F6F7FF5
:1016C0008C7FAA7FC77FE57F028020803E805B8081
:1016D00079809780B480D280F0800E812C814981FE
:1016E00067818581A381C181DF81FD811B82398270
:1016F000578276829482B2820100020004000800C0
:1017000010002000400080000001000200040000E2
:10171000190032004B0065007E009700B000C90040
:10172000E200FC0015012E01470161017A019301DD
:10173000AD01C601E001F90113022C02460260026C
:1017400079029302AD02C702E102FB0215032F03E7
:10175000490363037D039803B203CD03E703020447
:101760001D04380453046E048904A404BF04DB047C
:10177000F60412052D054905650581059D05BA0587
:10178000D605F3050F062C06490666068306A10654
:10179000BE06DC06FA0618073607540773079107DA
:1017A000B007CF07EE070E082D084D086D088D080D
:1017B000AE08CE08EF0810093209530975099709D8
:1017C000B909DC09FF09220A450A690A8D0AB10A2A
:1017D000D50AFA0A1F0B450B6A0B910BB70BDE0BF0
:1017E000050C2C0C540C7D0CA50CCE0CF80C220D09
:1017F0004C0D760DA20DCD0DF90D260E530E800E5B
:10180000AE0EDD0E0C0F3C0F6C0F9D0FCE0F0010B7
:10181000331066109A10CE10031139117011A711F0
:10182000DF11181252128C12C812041341137F13C5
:10183000BE13FE133F148114C31407154D159315E1
:10184000DA1523166D16B81604175217A117F217DA
:1018500044189818ED1844199D19F719541AB21A1A
:10186000121B741BD81B3E1CA71C121D7F1DEF1DD5
:10187000611ED71E4F1FC91F4720C8204D21D421EC
:101880006022EF2281231824B4245325F825A126B1
:101890004F270228BB287A29402A0B2BDE2BB82C95
:1018A000992D822E742F6F30733181329A33BF3469
:1018B000EF352C377738D1393A3BB43C413EE03FE5
:1018C00095415F43434540475B49944BEF4D705012
:1018D0001953F055F758365CB15F71637C67DD6B67
:1018E0009F70CE757C7BFF7FFF7FFF7FFF7FFF7F39
:1018F000FF7FFF7FFF7FFF7FFF7FFF7FFF7FFF7FF8
:10190000FF7FFF7FFF7FFF7FFF7FFF7FFF7FFF7FE7
:101910000000190032004B0065007E009700B00007
:10192000C900E200FB0014012D0146015F017801AE
:101930009101AA01C301DC01F5010E022702400258
:10194000590272028B02A302BC02D502EE02060308
:101950001F0338035003690381039A03B203CB03C7
:10196000E303FC0314042C0444045D0475048D0497
:10197000A504BD04D504ED0405051D0534054C057D
:1019800064057C059305AB05C205DA05F10508067B
:101990001F0637064E0665067C069306AA06C10694
:1019A000D706EE0605071B07320748075E077507CF
:1019B0008B07A107B707CD07E307F9070E0824082F
:1019C0003A084F0865087A088F08A508BA08CF08B2
:1019D000E408F8080D09220937094B095F09740961
:1019E00088099C09B009C409D809EC09FF09130A40
:1019F000260A3A0A4D0A600A730A860A990AAC0A4C
:101A0000BF0AD10AE40AF60A080B1B0B2D0B3E0B8A
:101A1000500B620B740B850B970BA80BB90BCA0B01
:101A2000DB0BEC0BFC0B0D0C1E0C2E0C3E0C4E0CB1
:101A30005E0C6E0C7E0C8E0C9D0CAC0CBC0CCB0C9E
:101A4000DA0CE90CF80C060D150D230D320D400DC6
:101A50004E0D5C0D690D770D850D920D9F0DAC0D32
:101A6000B90DC60DD30DDF0DEC0DF80D040E100EE3
:101A70001C0E280E340E3F0E4B0E560E610E6C0ED1
:101A8000770E810E8C0E960EA10EAB0EB50EBF0E0C
:101A9000C80ED20EDB0EE40EEE0EF70EFF0E080F90
:101AA000110F190F210F290F310F390F410F480F57
:101AB000500F570F5E0F650F6C0F720F790F7F0F6E
:101AC000850F8B0F910F970F9C0FA20FA70FAC0FD5
:101AD000B10FB60FBB0FBF0FC40FC80FCC0FD00F85
:101AE000D40FD70FDB0FDE0FE10FE40FE70FEA0F84
:101AF000EC0FEF0FF10FF30FF50FF70FF80FFA0FD1
:101B0000FB0FFC0FFD0FFE0FFF0FFF0F001000106B
:101B100000100FF00FF0000C070707060805060776
:101B200003030403020100000000000000000000A5
:101B3000000000000102030405060708090A0B0C57
:101B40000002040507090B0C00000000000002035E
:101B50000507080B0C000000000000020305070841
:101B60000A0C000000000000020406080A0C000035
:101B700000000000000203050608090B0C0000002D
:101B80000000020407090C00000000000000000330
:101B90000506070A0C00000000000000020305060D
:101BA000090A0C00000000000004070C00000000FF
:101BB00000000000000003070C000000000000000F
:101BC0000000000306090C000000000000000000F7
:101BD00004080C00000000000000000000070C00DA
:101BE000000000000000000000000C0000000000E9
:101BF000000000000000460E4A0E11241FBECFEF69
:101C0000D8E0DEBFCDBF11E0A0E0B1E0E0E4FFE648
:101C100002C005900D92A835B107D9F724E0A8E5D8
:101C2000B1E001C01D92AF39B207E1F71BE1C8EF87
:101C3000DBE104C02297FE010E949E35C63FD1071A
:101C4000C9F70E94C4330C9493370C9400008CE5C0
:101C500091E00C944D120E9479338091580190913B
:101C60005901A0915A01B0915B01681B860F911D2B
:101C7000A11DB11D8093580190935901A0935A0161
:101C8000B0935B018CE591E00C940E128CE591E031
:101C90000C946D118CE591E00C94041284EB91E0AE
:101CA0000C94731888E791E00C944615FC0184812C
:101CB00095810C940019CF93DF93EC018C819D8169
:101CC0000E94751E64E08C819D810E94581D60E019
:101CD0008E819F81DF91CF910C94EE15BF92CF92B0
:101CE000DF92EF92FF920F931F93CF93DF93EC015C
:101CF0008A01643081F4EE81FF812FE0249FC001CE
:101D0000259F900D112464E0969587956A95E1F7DB
:101D1000978F868FDBC0611118C08FE0849FB00160
:101D2000859F700D112454E0769567955A95E1F7DB
:101D30008E819F81DF91CF911F910F91FF90EF9046
:101D4000DF90CF90BF900C94F017673009F0A5C0DA
:101D50008B8D99EF980F963008F051C0FE01E80F77
:101D6000F11DF384EE81FF816F2D848195810E94A6
:101D70007122B82EEE81FF816F2D848195810E94A2
:101D80003122C82E9B8D993069F040F4973051F084
:101D90009830B9F4E12EE694E6941DC09D3088F4A5
:101DA000E12E19C0DD24D394011588E0180708F44A
:101DB000D12C000F012F001F110B1195802F8F7058
:101DC000E82EDB1441F0EE81FF814D2D6F2D8481D3
:101DD00095810E944A22EC1409F478C0EE81FF81BB
:101DE0004E2D6F2D84819581DF91CF911F910F91A1
:101DF000FF90EF90DF90CF90BF900C9406228D3033
:101E000049F5EE81FF81CA01880F991F840F951F44
:101E1000192F1695169583A5181709F457C013A7FF
:101E2000898D882309F452C08C819D81612F0B9686
:101E30000E942B328C819D81612F8C529F4FDF91AC
:101E4000CF911F910F91FF90EF90DF90CF90BF90B7
:101E50000C94FE2E8E3059F4BA0124E076956795E5
:101E60002A95E1F78C819D818C5B9F4F0BC08F3051
:101E700069F5BA0194E0769567959A95E1F78C81BA
:101E80009D814C96DF91CF911F910F91FF90EF9024
:101E9000DF90CF90BF900C94662D84E056954795C7
:101EA0008A95E1F7DE01A60FB11DEE81FF811A963A
:101EB0006C9184819581DF91CF911F910F91FF905B
:101EC000EF90DF90CF90BF900C947B22DF91CF9169
:101ED0001F910F91FF90EF90DF90CF90BF900895EA
:101EE000DF92EF92FF920F931F93CF93DF93EC015A
:101EF000623011F158F4662361F1613009F059C084
:101F0000EC81FD81E55EFE4F83E01BC06330D9F0BC
:101F1000643009F04EC08C819D81FC01E55EFE4F6E
:101F200022E020830E94FD18E82EF12CEE0CFF1C0D
:101F3000D12C00E010E01EC0EC81FD81E55EFE4F7B
:101F400081E0808336C0EC81FD81E55EFE4F81E05B
:101F500005C0EC81FD81E55EFE4F82E08083EE816D
:101F6000FF8164E0848195810E947122882309F1B8
:101F700061E014C0612F8C819D810E94F7182E8131
:101F80003F81482F6D2DC90106960E94A2200E0D9B
:101F90001F1DD39480E8D812EDCF60E08C819D8125
:101FA000DF91CF911F910F91FF90EF90DF900C94F4
:101FB0000319DF91CF911F910F91FF90EF90DF9068
:101FC0000895FC0184819581662311F061E001C0D0
:101FD00060E00C940319CF93DF93EC01442309F4E0
:101FE0006FC04B8D50E04730510508F069C0FA01D1
:101FF000EC5CFF4F0C949C3561E08C819D81DF91FE
:10200000CF910C940319EE81FF8160E0848195816A
:102010000E94312241E0480F4F70EE81FF8160E065
:102020000DC0EE81FF8161E0848195810E943122A3
:1020300041E0480F4370EE81FF8161E0848195812A
:10204000DF91CF910C940622EE81FF8163E08481C1
:1020500095810E94312241E0480F4F70EE81FF814F
:1020600063E0ECCFEE81FF8165E0848195810E9481
:10207000312241E0480F4F70EE81FF8165E0DECFF5
:10208000EE81FF8166E0848195810E94312241E0EA
:10209000480F4F70EE81FF8166E0D0CFEE81FF8167
:1020A00067E0848195810E94312261E0680F6F7042
:1020B000EE81FF8184819581DF91CF910C94CC22B8
:1020C000DF91CF9108950F931F93CF93DF93EC018E
:1020D000162F042F898D811126C08C819D8161303E
:1020E00011F464E005C0643011F468E001C060E1FF
:1020F0000B960E9438328C819D81602F0B960E9436
:102100002B328C819D81612F8E569F4F0E94FE2E17
:102110008C819D81602F8C529F4FDF91CF911F91B9
:102120000F910C94FE2EDF91CF911F910F91089586
:10213000FC01611110C0218D86819781211103C09E
:10214000642F0C94181724813581FC016285C90124
:1021500002960C942B32613091F4818D811108C06C
:102160000680F781E02D6285848195810C9406229A
:1021700084819581642F8C529F4F0C94FE2E08957C
:10218000FC01218D21110BC084819581FC01EA5E47
:10219000FE4F442311F022E001C021E02083089586
:1021A000CF92EF920F93CF93DF93EC01611121C097
:1021B000898D81111EC08C819D818A5E9E4FFC019C
:1021C00020814985CC24C394213021F4EE24E3946A
:1021D00002E003C0E2E0EE2E01E0242F68E00E945E
:1021E0001D30EC81FD81E757FF4F8081813009F47C
:1021F0008A8FDF91CF910F91EF90CF900895CF9379
:10220000DF93EC0102960E941D32CE010B960E94D4
:102210001D32FE01749688E0DF011D928A95E9F770
:10222000CE01869638969E0124593F4F51E04FEFDC
:102230001082128211821482138216821582DC01AE
:1022400013975C9311964C9311961C920A963A96AA
:10225000E217F30769F788E0DF011D928A95E9F735
:10226000FE01EC58FF4F8CE0DF011D928A95E9F7E3
:102270003C9610821182128214821382158224E607
:10228000268380ED97E090878783399610821182AC
:102290001282148213821582268390878783CE014F
:1022A0008E569F4F0E94E72ECE018C529F4F0E9468
:1022B000E72ECE018A5E9E4F0E94AF2FCE01855E33
:1022C0009E4F0E94AF2FFE01E05EFE4F1082CF5D59
:1022D000DE4F1882DF91CF910895CF93DF93EC0109
:1022E00082E291E0998388838CE391E09B838A83E7
:1022F0008091D60281110BC084EB91E00E94FF1007
:1023000081E08093D6028EE49EE00E94C03384EB8D
:1023100091E09D838C838091DE02811148C08AE424
:1023200091E0909379018093780186E591E0909314
:102330007B0180937A018EE791E00E947A211092CE
:102340008201109284011092830189E891E00E9439
:10235000903086E991E00E9452238CE991E00E943E
:10236000522382EA91E00E94933184EA91E00E9434
:10237000BE3280E88093AB011092AC0180E491E121
:102380009093AE018093AD0180EE96E09093B00102
:102390008093AF011092B1011092B2011092B3017B
:1023A00081E08093DE0282E59EE00E94C03388E7F0
:1023B00091E09F838E838EE8888784E0898788E018
:1023C000E0E1F1E0DE011A9601900D928A95E1F7C5
:1023D00086E0E8E1F1E0DE01529601900D928A95E7
:1023E000E1F78CE3888F198E1A8E1B8EBE016E5F0B
:1023F0007F4F88E791E00E94A615BE018C819D81E8
:10240000DF91CF910C94D31A22E231E0FC013183A9
:1024100020832CE331E03383228308951F93CF93ED
:10242000DF93EC01162F8C819D810E94EB1D8C8126
:102430009D810E94751E612F8C819D810E943D1996
:10244000612F8C819D810E9486198C819D810E94C3
:10245000BD19612F8C819D810E9410198C819D81F5
:102460000E94291A612F8E819F810E94EE158E8114
:102470009F81DF91CF911F910C944F16DC015B96E9
:102480006C935B971496ED91FC911597673018F457
:1024900081E0838F0895138E0895CF92EF920F936A
:1024A000CF93DF93EC01EC81FD8181E081878E8108
:1024B0009F810E94451767EF73E08C819D810E9488
:1024C000D718EE81FF8183A766EF73E08C819D8131
:1024D0000E94D718682FCE010E943E1265EF73E06C
:1024E0008C819D810E94D7182C813D81F901EF5D7F
:1024F000FE4F808364EF73E0C9010E94D718682FF4
:102500006F70EE81FF81848195810E94CC22498584
:102510008C819D81CC24C394F2E0EF2E01E0242F26
:1025200064E08A5E9E4F0E941D3049858C819D81AA
:10253000EE24E39402E0242F64E0855E9E4F0E9427
:102540001D30DF91CF910F91EF90CF900895CF93F1
:10255000DF93EC01EE81FF816285848195810E9489
:102560007122EE81FF8141E0482762858481958157
:10257000DF91CF910C944A22CF92DF92EF92FF929B
:102580000F931F93CF93DF931F92CDB7DEB76C01EC
:10259000DC011696ED91FC911797128514968D919A
:1025A0009C911597FC01ED57FF4F208131816111FE
:1025B00090C18A5E9E4F413021F422E0FC012083CD
:1025C000AAC101E0213D374008F400E00E94EA2F53
:1025D000D60114968D919C911597DC01AA5EBE4F91
:1025E00021E02C93412F50E04830510508F093C171
:1025F000455C5F4FFA010C949C35D6015A968C913C
:102600005A978823B9F05A961C925A9716968D912C
:102610009C91179706960F90DF91CF911F910F9184
:10262000FF90EF90DF90CF900C949421F601228DD3
:10263000211131C0C6010F90DF91CF911F910F91F1
:10264000FF90EF90DF90CF900C94A712002379F0C9
:10265000F6018681978106960F90DF91CF911F91A9
:102660000F91FF90EF90DF90CF900C94B02060E03E
:102670000E940319D60116968D919C911797069684
:102680000F90DF91CF911F910F91FF90EF90DF900E
:10269000CF900C944D21128EDC011B962C91213091
:1026A00071F02CF4211137C168EF73E00AC02230B9
:1026B00099F0233009F02FC16EEF73E002C06AEF8A
:1026C00073E00F90DF91CF911F910F91FF90EF90EA
:1026D000DF90CF900C94CB1C6CEF73E0F2CFF6013F
:1026E000218D222309F45AC0DC011B964C91143031
:1026F00061F01530C1F00680F781E02D43A767EF48
:1027000073E0F6018481958114C0642FC60149836A
:102710000E943E12498166EF73E0D60114968D91B6
:102720009C91159706C0FC01EF5DFE4F408365EF5D
:1027300073E00E94E718F601118E0190F081E02D00
:10274000E484F584D6011696ED91FC911797612FDC
:10275000848195810E943122482F612FC601F701A3
:102760000995D601ED91FC911197E684F7841696B0
:10277000ED91FC911797612F848195810E947122C0
:10278000482F612FC601F7010F90DF91CF911F9164
:102790000F91FF90EF90DF90CF900994002309F400
:1027A00049CF21E0F601218F23E02C930B961430C2
:1027B000E9F0153069F16CE00E943832D6011696C6
:1027C000ED91FC91179714968D919C91159763A5A7
:1027D0000B960E942B32D6011696ED91FC9117971D
:1027E00014968D919C91159763A528C060E10E9475
:1027F0003832F60184819581638D0B960E942B32CD
:10280000D60114968D919C9115975B966C9116C08C
:1028100064E00E943832F60184819581FC01EF5D0D
:10282000FE4F60810B960E942B32D60114968D913B
:102830009C911597FC01EF5DFE4F60818C529F4F7C
:102840000F90DF91CF911F910F91FF90EF90DF904C
:10285000CF900C94FE2ED6011696ED91FC91179711
:1028600067E084819581002369F00E943122D601BE
:102870001696ED91FC911797682F848195810E949F
:1028800093220CC00E943122D6011696ED91FC9144
:102890001797682F848195810E94CC22D6011696C5
:1028A000ED91FC91179767E0848195810E94312218
:1028B000482F64EF73E0F601848195810F90DF91DA
:1028C000CF911F910F91FF90EF90DF90CF900C94DC
:1028D000E718613001F54130F1F4FC01E058FF4F99
:1028E0002081211118C0D60159962C91211113C0B5
:1028F00061E049830E940319D6011496ED91FC9181
:102900001597ED57FF4F808191814981813D974017
:1029100010F0F601428F0F90DF91CF911F910F9130
:10292000FF90EF90DF90CF90089502970C94560E91
:1029300002970C945B0E02970C94E10F02970C9493
:10294000631002970C94C010FC01623091F028F4DF
:10295000662341F0613041F00895633089F06430BE
:10296000B1F0089540A3089550E05595479541AFC3
:10297000089580E2489FA001112450A747A304C0F6
:10298000A785B0891C964C9381E084AB089550E0F4
:102990005595479542AF0895DC011B968D919C910A
:1029A0001C97DC01ED91FC910680F781E02D0994E4
:1029B000EF92FF920F931F93CF93DF93EC01F62ECC
:1029C000E42E83E06817E9F0861738F0662399F063
:1029D000A2E06A1340C04BA33EC0B4E06B1789F17C
:1029E00085E0681338C0642F8F8598890E941D2662
:1029F00081E08CAB30C0642FCE0106960E94452149
:102A00002AC04BAF8C819D818E010F5E1F4F4423E6
:102A100061F021E02AA763E00E943122E82FF0E074
:102A2000EE0FFF1FE054FF4F06C063E00E9431220B
:102A30008AA7E0ECF0E065917491C8010E94E6304D
:102A40000AC08B859C85DC01ED91FC910084F185A9
:102A5000E02D642F09958A85F81211C08B859C851D
:102A6000DC01ED91FC910280F381E02D4E2D6F2D64
:102A7000DF91CF911F910F91FF90EF900994DF911B
:102A8000CF911F910F91FF90EF9008950F931F9397
:102A9000CF93DF93EC018AE491E09983888386E504
:102AA00091E09B838A830D851E850115110531F008
:102AB000C8010E949F23C8010E94D7330C811D8149
:102AC0000115110531F0C8010E94FE21C8010E94C4
:102AD000D7330F8518890115110531F0C8010E94FF
:102AE000B325C8010E94D7330FA518A901151105F8
:102AF00031F0C8010E94B02DC8010E94D73309A946
:102B00001AA90115110531F0C8010E942F31C80121
:102B10000E94D733CE018C960E94C432CE018A9691
:102B20000E949731CE0184960E945A23CE014E9680
:102B30000E945A23CE0141960E94A130CE010696F2
:102B4000DF91CF911F910F910C9439200F931F9318
:102B5000CF93DF93EC017C876B878CE090E00E9441
:102B6000D3338C01BE010E94E7211D830C8381E4D5
:102B700090E00E94D3338C01BE016E5F7F4F0E94B4
:102B80008A25188B0F8785E090E00E94D3338C0153
:102B900060E80E9481241E870D876BA9C8010E94EE
:102BA00079248BE090E00E94D3338C0160E80E948E
:102BB000CE2D18AB0FA76BA9C8010E94C22D84E0CF
:102BC00090E00E94D3338C016BA90E9424311AAB90
:102BD00009ABDF91CF911F910F910895DF92EF9292
:102BE000FF920F931F93CF93DF93EC01D62E8BAD03
:102BF0008E01025E1F4F8823B9F0C8010E945B233B
:102C0000BC01CE018A960E94FC31BC017E0181E1AB
:102C1000E80EF11CC7010E94D1306D2DC7010E9442
:102C2000EB308D899E890FC08AA5882349F0C801A1
:102C30000E945B23BC01CE018A960E94FC3103C036
:102C4000C8010E945B239EAB8DAB6DA97EA9C80114
:102C50000E94702398AF8FABABA9B0E0B595A79554
:102C6000B595A7959C010E94B935AB01BC018D8536
:102C70009E85FC010081118122813381401751071B
:102C80006207730721F00E94112481E08CABDF9171
:102C9000CF911F910F91FF90EF90DF900895CF9209
:102CA000DF92EF92FF920F931F93CF93DF9300D0A9
:102CB0001F92CDB7DEB78C01DC01D3966C91CE01AB
:102CC00001960E941133BE016F5F7F4FC8010696C7
:102CD0000E944B2020E0F80141ADBE016F5F7F4FA5
:102CE00081A992A90E94393166E0D80114968D918C
:102CF0009C9115970E947122882339F0BE016F5F65
:102D00007F4FC8018C960E94D932F8018385948543
:102D1000DC01ED91FC910680F781E02D0995F80129
:102D200084A9882371F114AAC5A8D6A87801F4E271
:102D3000EF0EF11CC7010E945B238C0D9D1DBC0191
:102D40007C5077FF02C060E070E0613C8FE1780763
:102D500010F060EC7FE1C7010E947023D8011F963C
:102D6000ED91FC915097938782871D968D919C9150
:102D70001E97DC014D915D916D917C91CF010E9478
:102D8000432BF80147A950AD569547955695479561
:102D9000BE016F5F7F4F878590890E949C2C64E005
:102DA000D80114968D919C9115970E948E228823AC
:102DB00051F020E0F80142ADBE016F5F7F4F87A563
:102DC00090A90E94F62D66E0D80114968D919C91F1
:102DD00015970E947122811107C0BE016F5F7F4F5E
:102DE000C8018C960E94D932BE016F5F7F4FF801F7
:102DF000858596850E94AE24D8011B968D919C9165
:102E00001C97DC01ED91FC910680F781E02D09957E
:102E1000CE0101960E9420330F900F900F90DF910A
:102E2000CF911F910F91FF90EF90DF90CF90089579
:102E30000F931F93CF93DF93EC016A87EB85FC859B
:102E40000190F081E02D008111818C819D810E9493
:102E50003122482F6A858B859C85F8010995EB8581
:102E6000FC850190F081E02D028113816A858C81BF
:102E70009D810E947122482F6A858B859C85F8016F
:102E8000DF91CF911F910F910994CF93DF93EC01C4
:102E90008D859E850E94BE23E9A9FAA98FEF8183C3
:102EA0006FEF8FA598A90E94DD2E60E0CE01DF9123
:102EB000CF910C941817CF93DF93EC018BA968176F
:102EC00089F06BAB8D859E850E9479246BA98FA5B7
:102ED00098A90E94C22D6BA989A99AA9DF91CF91C7
:102EE0000C943031DF91CF910895EF92FF920F93C0
:102EF0001F93CF93DF93EC01F62EE42E062F10E004
:102F00000730110508F051C0F801ED5BFF4F0C943C
:102F10009C35642F06960E94492147C0842F8370F8
:102F2000E82E24E0280F61E070E001C0660F2A95CA
:102F3000EAF7CE010E945B1738C0A42FA770EA2ED3
:102F40008B859C85EA2FF0E0E854FF4F6491FC01EB
:102F5000A081B1811496ED91FC911597099525C03A
:102F600019A24AA322C0642F8F8598890E94BC258C
:102F700081E08CAB1AC063E08C819D810E9471223C
:102F8000882369F0EE2DF0E0EE0FFF1FE054FF4FB5
:102F900065917491CE0141960E94E63006C0EAA682
:102FA00004C0642F8C960E94C5328A85F81211C025
:102FB0008B859C85DC01ED91FC910190F081E02DE9
:102FC0004E2D6F2DDF91CF911F910F91FF90EF90BC
:102FD0000994DF91CF911F910F91FF90EF90089589
:102FE000FC0175A364A321E024AB089502970C941F
:102FF000CC140C9471370C946137CF93C42F20916B
:1030000075032111FCCF209174032111F8CF209179
:10301000BC0024FDF4CF7093EF026093F0024C2FBC
:10302000BC0181EF92E00E945837CE5FC0937303DA
:1030300081E0809375031092710380917103806A1F
:103040008093710385EE8093BC00CF910895209109
:1030500075032111FCCF209174032111F8CF209129
:10306000BC0024FDF4CF7093EF026093F00222E0E5
:103070002093730321E02093750310927103209134
:103080007103206A2093710325EE2093BC002091E8
:1030900075032111FCCF2091BC0024FDF8CF409393
:1030A000730321E020937403209371032091710333
:1030B000206A2093710325EE2093BC0020917403B5
:1030C0002111FCCF2091BC0024FDF8CF6FEE72E0FF
:1030D0000C94583780917503811103C0809174035B
:1030E000089581E00895EF92FF920F931F93CF937D
:1030F000DF93EC0188819981009711F00E94D7330A
:103100007E018AEEE81A8EEFF80A61F08E01005E09
:103110001E4F0E151F0531F005501109C8010E9400
:10312000B62FF7CF8E010E561F4F51F0E016F10665
:1031300039F082E4E81AF108C7010E94FD2EF6CFAB
:103140007E0180E8E80EF11CE114F10449F00E154F
:103150001F0531F009501109C8010E948432F7CFD0
:103160007E018CE1E80EF11CE114F10461F08E01A6
:1031700004591F4F0E151F0531F00A501109C801DF
:103180000E94492DF7CF8E010E5F1F4F49F06496C4
:10319000C017D10729F02997CE010E942A32F8CF13
:1031A000DF91CF911F910F91FF90EF900895CF93F2
:1031B000DF931F92CDB7DEB741E050E0CE0101961C
:1031C0000E94613789810F90DF91CF910895CF934D
:1031D000DF931F92CDB7DEB7498341E050E0CE01C7
:1031E00001960E9471370F90DF91CF910895E62FDD
:1031F000F0E0E858FC4F80810895809177030895AE
:1032000060930A01089560937603613041F410924F
:1032100077038FE7809377048EEC80937A0008958C
:103220001F93CF93DF93EC01FC01E05EFE4F8081A2
:10323000680F608310E08081803120F080518083AE
:103240001F5FF9CF1123A9F0612FCE018C529F4F40
:103250000E94452F612FCE018A5E9E4F0E945530FD
:10326000612FCE01855E9E4FDF91CF911F910C940F
:103270005530DF91CF911F910895CF92DF92EF9259
:10328000FF920F931F93CF93DF937C01D62E8C0177
:1032900000581F4FC0E0D0E0CC2EFE01E858FB4F95
:1032A0008081D8018C936D2DC8010E9485328823BE
:1032B00059F0F70180819181DC01ED91FC91028050
:1032C000F381E02D6C2F09956D2DC8010E949C3271
:1032D000882369F0F70180819181DC01ED91FC91F7
:1032E0000190F081E02DD8014C916C2D099521962B
:1032F000075F1F4FC230D10579F6DF91CF911F9143
:103300000F91FF90EF90DF90CF900895DF92EF92B2
:10331000FF920F931F93CF93DF937C01D62EEC0186
:10332000229600E010E0F801EE0FFF1FE558FB4F7A
:10333000808191819A8389836D2DCE010E944032D4
:10334000882369F0D7018D919C91DC01ED91FC916E
:103350000680F781E02D28854881602F09950F5F51
:103360001F4F299602301105F1F6DF91CF911F9181
:103370000F91FF90EF90DF900895209176033091A8
:10338000EA02321771F0609176036093EA02DC0181
:103390008D919C91DC01ED91FC910084F185E02DF3
:1033A00009940895E9EBF0E080818E7F808380812D
:1033B0008D7F808388E48093B80085E48093BC008F
:1033C0000895809175038111FCCF80917403811160
:1033D000F8CF8091BC0084FDF4CF4093EF0220939E
:1033E000F00282E08093730381E080937503109272
:1033F0007103809171036062660F682B60937103A3
:1034000085EE8093BC000895809175038111FCCFF7
:10341000809174038111F8CF8091BC0084FDF4CFBA
:103420004093EF022093F0023093F10283E0809307
:10343000730381E08093750310927103809171038F
:103440006062660F682B6093710385EE8093BC0009
:1034500008958F929F92AF92BF92CF92DF92EF9298
:10346000FF920F931F93CF93DF938C017C0182E92E
:10347000E80EF11CCBEED2E0912C6801EAEECE1AF8
:10348000EEEFDE0A5801F5EEAF1AFEEFBF0A882410
:103490008394F70120813181911016C0F60180815B
:1034A000982F9D7F913009F434608250823008F467
:1034B0003860F5018081982F9D7F913009F431604B
:1034C0008250823008F43260888199812817390748
:1034D00041F03983288342E1682D6919C8010E94AF
:1034E000041A9394F2E4EF0EF11C229682E09812F3
:1034F000D0CFDF91CF911F910F91FF90EF90DF9090
:10350000CF90BF90AF909F908F9008952A9A229A63
:103510008CB580618CBD8CB580648CBD239A259A56
:103520008DB581608DBD8CB58D7F8CBD8CB5816076
:103530008CBD8CB58F7D8CBD8CB5877F8CBD8CB5DB
:103540008B7F8CBD08956EBD0DB407FEFDCF8EB58B
:1035500008950F931F93CF93DF93EC012A98062FC2
:1035600010E062FB662760F966600E94A31AB8014A
:1035700096E0660F771F9A95E1F7CE010E94A31A95
:10358000182F60E0CE010E94A31A2A9A1F70212FE3
:1035900030E0322F2227A901482BCA01DF91CF91B9
:1035A0001F910F9108954F925F926F927F928F9229
:1035B0009F92AF92BF92CF92DF92EF92FF920F93C2
:1035C0001F93CF93DF93CDB7DEB72C970FB6F89448
:1035D000DEBF0FBECDBF8C01DC016D937C93F894F0
:1035E0000E94861A1C861B86680148EFE42E43E081
:1035F000F42E42E050E0B701CE010B960E946137F5
:103600005601B4E7AB0EB11C8B8590E0982F88274C
:103610002C85820F911DF50191838083B7016E5F28
:103620007F4F42E050E0CE010B960E9461378B85C0
:1036300090E0982F88272C85820F911DF601EA587B
:10364000FF4F91838083F4E0EF0EF11CF601E85800
:10365000FF4FD5012D913C91821B930B9183808369
:10366000B6E0CB0ED11CE114E4E0FE0611F67801C1
:10367000FCE1EF0EF11C6801B12CBAE0AB2E86E044
:10368000982ED60154968C91811144C08B2D8B7F3E
:103690006B2DD9F5C8010E94A91A41E050E0B4E0B1
:1036A000BB1202C040E050E0BC0180E090E0949E7C
:1036B0009001959E300D1124200F311FF901EC5817
:1036C000FF4F40815181641B750B81099109ABE06B
:1036D000660F771F881F991FAA95D1F7349620810E
:1036E000318140E050E00E947D353C5F4F4F5F4F9D
:1036F00057FD10C02115E0E13E07410551051CF0C2
:103700006FEF7FE009C0B90107C0C8010E94A91A84
:10371000BC0102C060E070E0CE0101960E943B2D2A
:10372000FE013196D7018A2D01900D928A95E1F71D
:10373000CE0101960E94492DD60154968C91F60136
:10374000E459FF4F3F01813061F46B2DC8010E94A5
:10375000A91A21E08130984008F420E0D3012C938D
:1037600001C01082B394FFEFCF1ADF0A2AE0E20E05
:10377000F11C38E0B31285CFF801E55BFF4F1082F2
:10378000D80193961C9210927C0080917C008064FA
:1037900080937C0080917C00806280937C0080E03C
:1037A00090E0C12CD12C7601C39420E030E0DC0104
:1037B000A052BF4FFD01E20FF31F44918AB02601D2
:1037C000370104C0440C551C661C771C4A95D2F77F
:1037D000B301A2014095509560957095912CA12C54
:1037E000B12C482159216A217B214AB94491FBB16E
:1037F0003601470104C0660C771C881C991C4A9549
:10380000D2F7B401A3014F2B4BB92F5F3F4F2230AA
:10381000310581F602968430910539F62098289872
:103820002198299856985E98539A5B98F3B0F09433
:103830006F2D61706093780440ED57E0CE010196E2
:103840000E947832D801A058BF4F89E0FE0131961E
:1038500001900D928A95E1F7CE0101960E94843283
:10386000F1FA662760F96093790440ED57E0CE01E4
:1038700001960E947832D801A757BF4F89E0FE0118
:10388000319601900D928A95E1F7CE0101960E9442
:10389000843269B1609566FB662760F960937A04AB
:1038A00040ED57E0CE0101960E947832D801AE5625
:1038B000BF4F89E0FE01319601900D928A95E1F7A4
:1038C000CE0101960E94843280916B0081608093CA
:1038D0006B0080916B00826080936B00D89A80911E
:1038E000680081608093680080916D00846080939F
:1038F0006D0080916D00806180936D0080916D00FE
:10390000806280936D0080916D00806480936D0073
:1039100080916D00806880936D00DA9A80916800D4
:1039200084608093680068E0C80102960E94383283
:103930007894C8010E94D21920E040E060E0C801FC
:103940000E94E11920E041E060E0C8010E94E11915
:1039500020E040E061E0C8010E94E11920E041E080
:1039600061E0C8010E94E1192C960FB6F894DEBF01
:103970000FBECDBFDF91CF911F910F91FF90EF90C0
:10398000DF90CF90BF90AF909F908F907F906F907F
:103990005F904F9008954F925F926F927F928F92B7
:1039A0009F92AF92BF92CF92DF92EF92FF920F93CE
:1039B0001F93CF93DF9300D0CDB7DEB74C013B010F
:1039C0001A821982CB018D7F883F934011F0412CE0
:1039D00002C014E0412E530188EFA81A83E0B80A10
:1039E000850116950795169507951127C801880F2B
:1039F000991F880F991FA81AB90AB694A794B8E01E
:103A00005B2EC12CD12C7601642DC4010E94A91A11
:103A1000C80ED91EE11CF11C5A94B1F753E0F6947C
:103A2000E794D794C7945A95D1F7D982CA8242E0D5
:103A300050E0B301CE0101960E947137F801EE0FFC
:103A4000FF1FE00FF11FEA0DF11DFA96EE0FFF1FA9
:103A5000E80DF91DD182C08226E0209FC001219F80
:103A6000900D1124880D991DFC01E858FF4FDC01D1
:103A7000AA58BF4F8C589F4F2D913C91DC018D91DE
:103A80009C91281B390B318320830F900F90DF917D
:103A9000CF911F910F91FF90EF90DF90CF90BF904B
:103AA000AF909F908F907F906F905F904F90089510
:103AB000CF92DF92FF920F931F93CF93DF93EC018E
:103AC000F62E0E94A91A41E050E024E0F21202C052
:103AD00040E050E0BC0180E090E0E6E0E49F90012F
:103AE000E59F300D11242C0F3D1FF901EC58FF4FBD
:103AF00040815181641B750B810991090BE0660FB0
:103B0000771F881F991F0A95D1F73496208131813C
:103B100040E050E00E947D353C5F4F4F5F4F8F2D5E
:103B200090E057FF0BC02AE0289FF001299FF00D7D
:103B30001124EC0FFD1F10A2178E1EC0211560E18D
:103B40003607410551056CF02AE0289FF001299FB6
:103B5000F00D1124EC0FFD1F2FEF3FE030A3278F56
:103B60000BC06AE0689FF001699FF00D11247C96FC
:103B7000EC0FFD1F348323832AE0289F8001299FB7
:103B8000100D1124045E1F4F0C0F1D1F60E0C801B3
:103B90000E946E2D8823B9F0E881F9810190F081AF
:103BA000E02DC480D580C8010E944A2DAC016F2D44
:103BB00088819981F601DF91CF911F910F91FF903C
:103BC000DF90CF900994DF91CF911F910F91FF90DB
:103BD000DF90CF9008954F925F927F928F929F9245
:103BE000AF92BF92CF92DF92EF92FF920F931F930B
:103BF000CF93DF931F92CDB7DEB77C01962E8C0159
:103C0000045E1F4F412C512C802E712E6C018FEDC4
:103C1000C81A8EEFD80A5701A4E4AA0EB11CF70106
:103C2000E40DF51D8489811145C0842D8B7F642DA1
:103C300021F4C7010E94581D3DC0C70149820E945E
:103C4000A91AF80194838383692DC8010E946E2DFF
:103C50002981882379F1D80113964D915C911497AD
:103C6000253061F4F601808180FF19C0BA0194E02B
:103C7000769567959A95E1F7C5010EC0263079F4DF
:103C8000D6018C9181FF0BC0BA0184E076956795CF
:103C90008A95E1F7882D972D0E94662D0BC0F701BC
:103CA00080819181DC01ED91FC910480F581E02D12
:103CB000622F0995BFEF4B1A5B0A065F1F4FE8E0C2
:103CC0004E16510409F0ABCF0F90DF91CF911F91A9
:103CD0000F91FF90EF90DF90CF90BF90AF909F90AB
:103CE0008F907F905F904F900895FF920F931F9356
:103CF000CF93DF938C01EC01F12C8C898130D9F4C6
:103D00006F2DC8010E94A91A41E08130984008F443
:103D100040E0FE01E459FF4F8081481761F0408385
:103D2000D8018D919C91DC01ED91FC910284F38589
:103D3000E02D6F2D0995F3942196B8E0FB12DDCFAD
:103D4000DF91CF911F910F91FF9008951F920F92D5
:103D50000FB60F9211248F939F93EF93FF9380914F
:103D6000790090917603913019F0923031F154C07E
:103D7000E0917703F0E08058E858FC4F8083E091B1
:103D80007703F0E0E858FC4F808187FD3DC0E0916B
:103D90007703F0E0E958FC4F808187FF35C082E06F
:103DA00080937603E0917703F0E0E858FC4F808140
:103DB000809378031092770327C0E0917703F0E0B7
:103DC0008058E858FC4F8083809177038F3F11F42F
:103DD00083E017C0E0917703F0E0E858FC4F808162
:103DE00087FD12C0E0917703F0E0E958FC4F808135
:103DF00087FF0AC09091770380910A01981720F0FD
:103E000084E08093760308C0809177038F5F80936E
:103E100077038EEC80937A00FF91EF919F918F91C1
:103E20000F900FBE0F901F9018951F920F920FB614
:103E30000F9211248F939F9383B18095982F917047
:103E40009093780486958170809379049F918F91E7
:103E50000F900FBE0F901F9018951F920F920FB6E4
:103E60000F921124EF92FF920F931F932F933F9382
:103E70004F935F936F937F938F939F93AF93BF9372
:103E8000CF93DF93EF93FF93F9B0F094C8EED2E0B5
:103E9000A6EEB2E060EE70E020E030E00F2D10E022
:103EA000F901EC51FF4FE490EF208881E81609F406
:103EB0003CC0FB01849131964491F80102C0F59514
:103EC000E7958A95E2F7CF0181709927880F991FAE
:103ED000880F991FF80102C0F595E7954A95E2F71A
:103EE000AF0141705527E3E0440F551FEA95E1F714
:103EF000842B952B4C9150E05595479555954795BA
:103F0000842B952B8C93FC01EA51FF4F8491F9018E
:103F1000EE0FFF1FE558FB4F40815181481B5109AF
:103F200087FD539551834083E8822F5F3F4F219651
:103F300011966E5F7F4F2230310509F0B1CFFF91AE
:103F4000EF91DF91CF91BF91AF919F918F917F9131
:103F50006F915F914F913F912F911F910F91FF9022
:103F6000EF900F900FBE0F901F9018951F920F9219
:103F70000FB60F9211248F939F93EF93FF9380912D
:103F8000B900887F883261F168F48031F9F028F453
:103F90008823D1F18830D1F063C0883109F18032B3
:103FA00099F15EC0803409F442C038F4803361F185
:103FB000883309F055C085E928C0803559F1883526
:103FC00009F441C0883409F04BC045C080917103A9
:103FD0008093BB0085EC8093BC001092720340C0BC
:103FE0009091720380917303981770F4E0917203BB
:103FF000F0E0E151FD4F80818093BB00809172031E
:104000008F5F8093720319C084E98093BC00109283
:10401000750326C0E0917203F0E08091BB00E1518E
:10402000FD4F8083809172038F5F80937203909124
:10403000720380917303981710F485EC01C085E832
:104040008093BC000DC0E0917203F0E08091BB0052
:10405000E151FD4F808384E98093BC00109274038A
:10406000FF91EF919F918F910F900FBE0F901F9036
:104070001895CF93DF93FC01C281D381209741F043
:10408000CE010E942033CE01DF91CF910C94D73323
:10409000DF91CF910895FF920F931F93CF93DF93FA
:1040A000FC018B01DB01FC9082819381892B09F457
:1040B00043C080818F30C9F48181811116C0C0E076
:1040C000D0E0CF15C8F50E944837880F892F881F88
:1040D000990BF801218132812115310521F0F90177
:1040E000EC0FFD1F80832196ECCF6F2D70E080E8F0
:1040F00090E00E94473580E090E040E08F15E0F4CA
:10410000A281B38111962D913C9112972115310511
:1041100021F0D901A40FB11DCC91D80111962D9198
:104120003C9112972115310521F0D901A80FB91F33
:10413000CC93460F0196E2CFDF91CF911F910F9163
:10414000FF900895DC011296ED91FC911397818107
:104150009281009721F0FC01E60FF11D4083089544
:10416000EF92FF921F93CF93DF93CDB7DEB7C05886
:10417000D1090FB6F894DEBF0FBECDBFDC0111969A
:104180008C9111976C9170E090E1899F600D711D89
:1041900011247695762F662777956795FE013196DF
:1041A0007F0120E030E0CF0112964D915C91139792
:1041B000FA01418152814115510521F0420F531FEF
:1041C000FA011081F70111937F012F5F3F4F2038D3
:1041D000310551F740E850E00E94FD17C058DF4F0D
:1041E0000FB6F894DEBF0FBECDBFDF91CF911F9108
:1041F000FF90EF9008950F931F93CF93DF93CDB768
:10420000DEB7C058D1090FB6F894DEBF0FBECDBFE0
:104210008C01DC0111968C9111976C9170E0B0E1EA
:104220008B9F600D711D11247695762F66277795EB
:10423000679540E850E0CE0101960E942718FE01E4
:10424000319620E030E04191D80112968D919C91F9
:104250001397DC0111968D919C911297009721F094
:10426000DC01A20FB31F4C932F5F3F4F2038310565
:1042700051F7C058DF4F0FB6F894DEBF0FBECDBF69
:10428000DF91CF911F910F910895FC0161830C94F0
:10429000FB20FC0160830C94FB20CF93DF93DC01B7
:1042A00020E030E011968C911197EC91F0E090E1D4
:1042B000899FE00DF11D1124F695FE2FEE27F7954D
:1042C000E795E20FF31FEA50FF4FE4911296CD916C
:1042D000DC91139789819A81009721F0EC01C20F3C
:1042E000D31FE8832F5F3F4F20383105D9F6DF9188
:1042F000CF9108950F931F93CF93DF93EC01188212
:1043000019821B821A8283E090E00E94D3338C01D1
:1043100060E80E9411331B830A83CE01DF91CF91A5
:104320001F910F910C944D21CF92DF92EF92FF924B
:104330000F931F93CF93DF93CDB7DEB7C058D1094A
:104340000FB6F894DEBF0FBECDBF6C01E12CF12C8F
:1043500000E010E00E946A188111FCCFB8016E0DD8
:104360007F1DDE01119620E030E0CB018A509F4F87
:10437000FC01E20FF31FE491ED932F5F3F4F2038D4
:104380003105B1F740E850E0CE0101960E94FD17DB
:1043900000581F4F011588E01807E1F688EFF81A5A
:1043A000E11480E1F806A1F6C6010E944D21C05833
:1043B000DF4F0FB6F894DEBF0FBECDBFDF91CF91B8
:1043C0001F910F91FF90EF90DF90CF900895CF93C2
:1043D000DF93FC0180E3808389E1818384E1828330
:1043E00013821482DF01159685E0ED0119928A95FA
:1043F000E9F773876287DF91CF910895FC01828589
:104400009385009711F00C94D7330895A62FB0E050
:10441000B595A795362F3170E32FF0E0EA50FF4EA7
:10442000E491A80FB91F2E2F20955C912523330FFF
:10443000330F542F01C0550F3A95EAF7352F3E231D
:10444000232B2C93DC011A968D919C911B9700973E
:1044500039F0DC01ED91FC910190F081E02D09949F
:104460000895262F2170E22FF0E0EA50FF4EE491EC
:1044700070E075956795860F971FDC018C91E82396
:104480008E2F90E0220F220F02C0959587952A95D6
:10449000E2F708950F931F93FC01848101E010E07F
:1044A00020E030E0062E04C0000F111F221F331F32
:1044B0000A94D2F7442311F0082B02C00095082378
:1044C000048382859385009749F0DC01ED91FC918E
:1044D0000280F381E02D1F910F9109941F910F919C
:1044E0000895FC01848190E002C0959587956A95B6
:1044F000E2F781700895FC01E60FF11D4583DC01B0
:104500001A968D919C911B97009739F0DC01ED91E3
:10451000FC910480F581E02D09940895860F911D8A
:10452000FC0185810895CF93DF93CDB7DEB72A973D
:104530000FB6F894DEBF0FBECDBFFC018AE0689FC6
:10454000B00111248081898381818A8382818B8358
:1045500083818C83AE014B5F5F4F85E090E09F01CC
:10456000280F391FD9012C91DA012D93AD01019645
:104570008A309105A1F784818A874AE050E0CE0114
:1045800001960E94F9172A960FB6F894DEBF0FBE67
:10459000CDBFDF91CF9108956F927F928F929F92BE
:1045A000AF92BF92CF92DF92EF92FF920F931F9341
:1045B000CF93DF93CDB7DEB72A970FB6F894DEBF5F
:1045C0000FBECDBF7C018AE0689FB00111244AE094
:1045D00050E0CE0101960E94FB178E010F5F1F4F26
:1045E000712C76EF872E70E1972EE7EFAE2EE0E18B
:1045F000BE2E6801F4014491672C660CF80181918C
:104600008F014823662DC7010E940622F5014491BF
:10461000F6018081482350E064E0559547956A95FE
:10462000E1F761E0660DC7010E9406227394F4E091
:104630007F12DFCF8E010B5F1F4FD12CF80141910C
:104640008F016D2DC7010E947B22D394F5E0DF120C
:10465000F5CF00E010E04A8550E0002E02C05595ED
:1046600047950A94E2F74170602FC7010E944A22E1
:104670000F5F1F4F0730110571F72A960FB6F89498
:10468000DEBF0FBECDBFDF91CF911F910F91FF9085
:10469000EF90DF90CF90BF90AF909F908F907F90E2
:1046A0006F900895FC01118210821282148213828D
:1046B000158208950895FC012381348180819181C0
:1046C000280F391F8281280F311D85818111305FAC
:1046D000C901813C2FE1920710F080EC9FE1089521
:1046E000CF93DF93EB01CB0160E073E00E943335A1
:1046F0009B01220F331F2850394EF901A591B49127
:1047000020E033E0629FC001639F900D729F900D87
:104710001124FE01E81BF90BEE0FFF1FE850FF4EBE
:10472000259134910E94AA3529E096958795779531
:1047300067952A95D1F7CB01DF91CF910895CF935B
:10474000DF93C0918504D0918604209731F0CE018B
:104750000E942033CE010E94D733C0918004D091B3
:104760008104209741F0CE010E942033CE01DF91D9
:10477000CF910C94D733DF91CF910895E6EBF0E021
:1047800080818F7B808380818F7D8083E0EBF0E070
:10479000808181608083808182608083A1EBB0E032
:1047A0008C91877F8C9380818F7E808380818062D3
:1047B000808380818F7B808380818F7780838C91C1
:1047C00081608C938C918D7F8C938C918B7F8C935B
:1047D000F894E0E8F0E080818E7F808380818D7F97
:1047E0008083E1E8F0E080818860808380818F7E33
:1047F000808380818160808380818D7F80838081C0
:104800008B7F808380910D0190910E0190938900A0
:1048100080938800EFE6F0E0808182608083789466
:1048200008957F928F929F92AF92BF92CF92DF9224
:10483000EF92FF920F931F93CF93DF93EC016A01E6
:104840007B0188819981AA81BB81481759076A0732
:104850007B0709F440C0488359836A837B8300E067
:1048600010E0812C84E2982E84EFA82EB12CC50193
:10487000B401002E04C0660F771F881F991F0A9489
:10488000D2F7A70196010E945B352F3F310559F001
:1048900050F081E090E0002E01C0880F0A94EAF702
:1048A00080930C0105C00F5F1F4F08301105F9F60A
:1048B0002150310930930E0120930D0181E0809346
:1048C000840420910C019C81291728F490910C01FB
:1048D0009C8380938304DF91CF911F910F91FF9070
:1048E000EF90DF90CF90BF90AF909F908F907F9090
:1048F00008956093870480918704815080930F010D
:1049000008951F93CF93DF93162F40E057E360E0A5
:1049100070E0FC0140835183628373831482612FB2
:104920000E94792483E090E00E94D333EC01612F50
:104930000E941133D0938604C093850483E090E0F5
:104940000E94D333EC01612F0E941133D093810474
:10495000C0938004DF91CF911F910895209182042C
:10496000211127C0E0918004F091810440E0209162
:1049700087044217B8F4DB0111962D913C911297F0
:104980002115310521F0D901A40FB11D5C912181C0
:1049900032812115310521F0D901A40FB11D5C939D
:1049A0004F5FE5CF20910C01FC01248381E08093CF
:1049B000830408951F920F920FB60F9211242F9324
:1049C0003F934F936F937F938F939F93AF93BF9337
:1049D000EF93FF9380918404882349F060910C0148
:1049E00080917F040E942735992309F45AC02091B1
:1049F0007F0421110FC080918304882331F081E06E
:104A0000809382041092830405C0809182048111F6
:104A10001092820480918204E0918504F0918604D2
:104A20008823D1F0A0918004B091810411968D91DA
:104A30009C911297009721F0DC01A20FB11D3C91CF
:104A400081819281009721F0FC01E20FF11D3083FA
:104A500030583093B4000BC081819281009721F0CF
:104A6000FC01E20FF11D408140584093B400909149
:104A70000F0180910B0120917F04820F8923809385
:104A80007F04FF91EF91BF91AF919F918F917F91A3
:104A90006F914F913F912F910F900FBE0F901F90EC
:104AA000189580910D0190910E019093890080934B
:104AB000880080910C0180930B011092840497CFA1
:104AC0009C0133278F3F910509F010F4F90108C0CC
:104AD000811542E0940758F4E0E0F1E0E21BF30BAB
:104AE000EE0FFF1FE05FF64E8591949108958115BA
:104AF000934010F4F90104C0E0E0F1E0E21BF30B95
:104B0000EE0FFF1FE05FF64E859194919195819590
:104B100091090895FC01CB0120E038E03183208326
:104B200049E351E060E070E042835383648375831E
:104B300040EA56E160E070E0468357836087718702
:104B400020E137E23387228714861586168641E0F6
:104B500050E060E070E0478B508F618F728FFF965E
:104B6000918380830895CF96FC0180819181009785
:104B700011F00C94D7330895CF92DF92EF92FF9209
:104B8000CF93DF93EC016D87462F50E0FA01359704
:104B9000E730F105E8F4E65BFF4F0C949C35C12C3F
:104BA00043EFD42E43EBE42E40E4F42E11C03EE557
:104BB000C32E3FE2D32E3EEFE32E30E4F32E08C0A7
:104BC00029EAC22E2EE9D22E23EEE22E2FE3F22E78
:104BD00020E030E040E855E4C701B6010E945D34B2
:104BE0000E94DB336F87788B898B9A8BC701B60164
:104BF0000E94C43420E030E040E855E40E945D3477
:104C00000E94DB336B8B7C8B8D8B9E8B1FA618AA2F
:104C100019AA1AAA1BAA1CAA1DAA1EAA1FAA18AE64
:104C200019AE1AAE1BAE1CAE1DAE1EAEDF91CF91FB
:104C3000FF90EF90DF90CF900895FC01668717A654
:104C400010AA11AA12AA13AA14AA15AA16AA17AA78
:104C500010AE11AE12AE13AE14AE15AE16AE089570
:104C60002F923F924F925F926F927F928F929F927C
:104C7000AF92BF92CF92DF92EF92FF920F931F936A
:104C8000CF93DF93CDB7DEB764970FB6F894DEBF4E
:104C90000FBECDBF1C01B62EBA0138014901A701D4
:104CA00096018BE08B1530F091E0B91640F410922C
:104CB00090045DC4AFE0AB1508F0BCC258C480E0FE
:104CC00090E00AE0660F771F881F991F0A95D1F7B9
:104CD0000E945B3580918E0490918F048217930718
:104CE00091F480918A0490918B04A0918C04B091EE
:104CF0008D04681679068A069B0629F48091900433
:104D0000B81609F4A7C430938F0420938E046092E0
:104D10008A0470928B0480928C0490928D04B092DD
:104D20009004C90193959370298B3A8B4B8B5C8BC4
:104D30000E9460252C0129893A89C9010E946025B9
:104D40005C01BC01882777FD8095982FBCE0660F39
:104D5000771F881F991FBA95D1F7A40193010E946C
:104D60007D3569017A01F594E794D794C794F101F0
:104D70001585812F90E001978B30910508F0F7C3DE
:104D80008F5A9F4FFC010C949C3540E050E1441930
:104D90005509CA0195958795AA2797FDA095BA2F21
:104DA000F10183A394A3A5A3B6A311C0C201905F90
:104DB00095958795AA2797FDA095BA2FF10183A312
:104DC00094A3A5A3B6A340E050EF44195509662764
:104DD00057FD6095762F47A350A761A772A717C00C
:104DE000C50195958795AA2797FDA095BA2FF10142
:104DF00083A394A3A5A3B6A317A210A611A612A6D7
:104E0000B095A095909581959F4FAF4FBF4F83A7C9
:104E100094A7A5A7B6A7D701C601905FAF4FBF4F14
:104E2000878B908FA18FB28F440C551C5194419465
:104E30005108662457FC6094762CD1015B964D9204
:104E40005D926D927C925E9780E090E1A0E0B0E090
:104E5000E8C180E090E1A0E0B0E0F10183A394A379
:104E6000A5A3B6A3440C551C519441945108662443
:104E700057FC6094762C47A250A661A672A683A721
:104E800094A7A5A7B6A7B701A601505F6F4F7F4FA4
:104E9000478B508F618F728FC0C1D1011F962D91AA
:104EA0003D914D915C91529729833A834B835C836A
:104EB000A701960169817A818B819C810E941735B7
:104EC0002CE095958795779567952A95D1F74B01B5
:104ED0005C01B0E19B0EA11CB11CF10183A294A264
:104EE000A5A2B6A2440C551C5194419451086624C5
:104EF00057FC6094762C47A250A661A672A6812C1E
:104F000040E1942EA12CB12CA5019401261B370B56
:104F1000480B590B23A734A745A756A7C701B601CD
:104F20005CE0660F771F881F991F5A95D1F729817A
:104F30003A814B815C810E947D35DA01C901905F25
:104F4000AF4FBF4FF101878B908FA18FB28F438EF0
:104F5000548E658E768E821A930AA40AB50A878EBD
:104F600090A2A1A2B2A203C3D1011F968D909D90E1
:104F7000AD90BC905297662457FC6094762CA501A6
:104F80009401C301B2010E9417350CE095958795F5
:104F9000779567950A95D1F79B01AC0124193509DE
:104FA0004609570929833A834B835C839B01AC01F3
:104FB000240D351D461D571D2D833E834F83588775
:104FC000D10153966D917D918D919C915697A7013A
:104FD00096010E9417356B017C018BE0F594E794F4
:104FE000D794C7948A95D1F71A50A5019401305FE0
:104FF0004F4F5F4F29873A874B875C87D501C401A4
:105000009051A109B1098D879E87AF87B88B123067
:1050100008F483C029013A0129813A814B815C81DE
:10502000421A530A640A750AC301B2016C0D7D1D50
:105030008E1D9F1DA50194010E9417350CE09595CA
:105040008795779567950A95D1F7D10193966D93DA
:105050007D938D939C9396976D857E858F8598899A
:105060002D813E814F815885621B730B840B950BFC
:10507000A50194010E941735EBE0959587957795EA
:105080006795EA95D1F7D10197966D937D938D93AE
:105090009C939A97C301B2016C197D098E099F09EF
:1050A0000E941735FCE09595879577956795FA9559
:1050B000D1F7F10163A774A785A796A789859A857B
:1050C000AB85BC8529813A814B815C81820F931F1E
:1050D000A41FB51FAC01BD014C0D5D1D6E1D7F1DD4
:1050E000478B508F618F728F4D845E846F84788878
:1050F0002D813E814F815885420E531E641E751EC0
:10510000440C551C661C771C709460945094409419
:10511000411C511C611C711C80C049845A846B84E1
:105120007C8429813A814B815C81420E531E641E2E
:10513000751EC301B2016C0D7D1D8E1D9F1DA50145
:1051400094010E9417350CE09595879577956795A2
:105150000A95D1F7D10193966D937D938D939C938E
:10516000969760E070E180E090E0681979098A091B
:105170009B092D813E814F815885621B730B840BE7
:10518000950BA50194010E941735EBE09595879545
:1051900077956795EA95D1F7D10197966D937D93B1
:1051A0008D939C939A97C301B2016C197D098E0966
:1051B0009F090E941735FCE095958795779567952F
:1051C000FA95D1F7F10163A774A785A796A78985FA
:1051D0009A85AB85BC8529813A814B815C81821B94
:1051E000930BA40BB50BAC01BD014C0D5D1D6E1DE9
:1051F0007F1D478B508F618F728F4D845E846F84CB
:1052000078882D813E814F815885421A530A640A5D
:10521000750A440C551C661C771C438E548E658E93
:10522000768E8C199D09AE09BF09878F90A3A1A323
:10523000B2A39DC180E090E019E0660F771F881F40
:10524000991F1A95D1F70E945B358091880490913F
:1052500089048217930729F480919004B81609F401
:10526000F9C13093890420938804B0929004C90155
:1052700099273D7F2F3F310509F040F4FC01EE0FE7
:10528000FF1FE25FF84EA590B4900DC0E0E0F1E0A2
:10529000E81BF90BEE0FFF1FE25FF84EA590B490EC
:1052A000B194A194B108D1011D968C918D3009F46F
:1052B000B5C008F061C08C3009F059C19501D50125
:1052C0000E94A2356B017C015CE0F594E794D794D1
:1052D000C7945A95D1F7F101C3A6D4A6E5A6F6A6C0
:1052E000C3A2D4A2E5A2F6A2D701C601880F991FD6
:1052F000AA1FBB1F87A390A7A1A7B2A726813781AA
:1053000040855185D5010E94CB35ECE09595879578
:1053100077956795EA95D1F746015701860E971E56
:10532000A81EB91EF0E19F0EA11CB11CD101579619
:105330008D929D92AD92BC925A9746015701B0E171
:105340009B1AA108B108880C991CAA1CBB1CF1016E
:10535000838E948EA58EB68EC61AD70AE80AF90AED
:10536000F0E1DF0EE11CF11CD1015F96CD92DD92E0
:10537000ED92FC929297FBC08E3009F4A4C08F305E
:1053800009F0F5C09501D5010E94A2356B017C01A1
:105390001CE0F594E794D794C7941A95D1F780E070
:1053A00090E3A0E0B0E0F10183A794A7A5A7B6A77A
:1053B00083A394A3A5A3B6A380E090EAAFEFBFEFC9
:1053C00087A390A7A1A7B2A723E030E0D5010E9450
:1053D000B9356C0D7D1D8E1D9F1D705D8F4F9F4FCC
:1053E000678B708F818F928FD701C601880F991FAD
:1053F000AA1FBB1F9056A109B109838F948FA58F57
:10540000B68F9501ADEFBFEF0E94A2356C0D7D1DEB
:105410008E1D9F1D705D8F4F9F4FA2C09501D501BE
:105420000E94A2356B017C012CE0F594E794D7949F
:10543000C7942A95D1F726013701B0E15B0E611CB4
:10544000711C80E090E1A0E0B0E0F10183A394A39F
:10545000A5A3B6A383A794A7A5A7B6A780E090EEBF
:10546000AFEFBFEF87A390A7A1A7B2A7268137818F
:1054700040855185D5010E94CB353CE095958795B7
:10548000779567953A95D1F753014201860E971E9D
:10549000A81EB91E878A908EA18EB28EB0E1DB1A4B
:1054A000E108F108CC0CDD1CEE1CFF1CC38ED48E71
:1054B000E58EF68E461A570A680A790A478E50A278
:1054C00061A272A254C09501D5010E94A2359B0130
:1054D000AC018CE055954795379527958A95D1F77E
:1054E000A3E0B0E00E94C0356B017C01F10163A72D
:1054F00074A785A796A7D10193966D937D938D93FD
:105500009C9396972B013C01440C551C661C771C00
:1055100047A250A661A672A623E030E0D5010E9402
:10552000B935705F8F4F9F4F6C0D7D1D8E1D9F1D78
:10553000678B708F818F928FB0E25B1A6108710860
:10554000438E548E658E768E9501ADEFBFEF0E942F
:10555000A235705F8F4F9F4F6C0D7D1D8E1D9F1D5F
:10556000D1015F966D937D938D939C939297F101FA
:10557000C788D08CE18CF28C63A174A185A196A11F
:105580005CE0660F771F881F991F5A95D1F7A70116
:1055900096010E947D35D10193962D933D934D93B5
:1055A0005C93969797966D917D918D919C919A972A
:1055B000ECE0660F771F881F991FEA95D1F7A701C6
:1055C00096010E947D35F10127A330A741A752A77C
:1055D00063A574A585A596A5FCE0660F771F881FB7
:1055E000991FFA95D1F7A70196010E947D35D10147
:1055F0009B962D933D934D935C939E975B966D91F7
:105600007D918D919C915E97ACE0660F771F881F0E
:10561000991FAA95D1F7A70196010E947D35F10146
:10562000238F348F458F568F678D70A181A192A1F2
:10563000BCE0660F771F881F991FBA95D1F7A701A5
:1056400096010E947D35D1015F962D933D934D9338
:105650005C93929764960FB6F894DEBF0FBECDBFF1
:10566000DF91CF911F910F91FF90EF90DF90CF903E
:10567000BF90AF909F908F907F906F905F904F9072
:105680003F902F9008954F925F926F927F928F92EA
:105690009F92AF92BF92CF92DF92EF92FF920F93C1
:1056A0001F93FC016A017B01A4852281338144811F
:1056B0005581B0E00E94C0358B019C0180819181B1
:1056C000080F191F211D311D6585662309F442C08D
:1056D0002601370176946794579447946C3098F07C
:1056E0004601570157E0B694A794979487945A952A
:1056F000D1F7D701C60174E0B695A7959795879520
:105700007A95D1F70DC08D2C9E2CAF2CBB24D701E0
:10571000C60146E0B695A795979587954A95D1F726
:10572000481A590A6A0A7B0A82859385A0E0B0E08C
:10573000481659066A067B0610F45386428682850F
:105740009385A0E0B0E088159905AA05BB0510F483
:105750009386828642855385CF010E9430261F9111
:105760000F91FF90EF90DF90CF90BF90AF909F9000
:105770008F907F906F905F904F9008954F925F92BF
:105780006F927F928F929F92AF92BF92CF92DF9251
:10579000EF92FF920F931F93CF93DF9300D000D02F
:1057A000CDB7DEB78C01862E992487FC9094A92C66
:1057B000B92CDC011E968C91882341F022E0880CE4
:1057C000991CAA1CBB1C2A95D1F707C096E0880C2F
:1057D000991CAA1CBB1C9A95D1F7D8019F968D9154
:1057E0009D910D90BC91A02D89839A83AB83BC833E
:1057F000F80147A850AC61AC72AC63A174A185A15B
:1058000096A1A50194010E9417356B017C0167A147
:1058100070A581A592A529813A814B815C810E9466
:105820001735C60ED71EE81EF91E23A534A545A5BB
:1058300056A563A974A985A996A90E941735C60E15
:10584000D71EE81EF91E638D748D858D968DA3017C
:1058500092010E941735C61AD70AE80AF90A278D5D
:1058600030A141A152A163AD74AD85AD96AD0E944A
:105870001735C61AD70AE80AF90A8CE0F594E794B6
:10588000D794C7948A95D1F7C114F0E8DF06E104F4
:10589000F1044CF4C11420E8D2062FEFE206F20620
:1058A0002CF0C60105C08FEF9FE702C080E090E8B2
:1058B0006C01EE24D7FCE094FE2C89819A81AB81A7
:1058C000BC81F80183AB94ABA5ABB6AB87A690AA1D
:1058D000A1AAB2AA43AE54AE65AE76AEC7AAD0AE08
:1058E000E1AEF2AEB6E0F594E794D794C794BA95DA
:1058F000D1F7C601803891053CF4B0E8CB16BFEF74
:10590000DB0624F08C2D03C08FE701C080E80F90E8
:105910000F900F900F90DF91CF911F910F91FF90FB
:10592000EF90DF90CF90BF90AF909F908F907F903F
:105930006F905F904F9008957F928F929F92AF9259
:10594000BF92CF92DF92EF92FF920F931F93CF936C
:10595000DF93EC017B018D85882309F47EC0DB0198
:10596000BC9000E010E0812C6E01BFE3CB0ED11C97
:10597000702E0B15B0F5F70181819281009721F00F
:10598000FC01E00FF11F9080692DCE010E94BE2B1B
:10599000D70111962D913C9112972115310521F0D7
:1059A000F901E00FF11F80839E85992349F080382B
:1059B00019F087FD819501C08FE788160CF4882EB9
:1059C000872D8F718F3151F4F60180819181DC0137
:1059D000ED91FC910190F081E02D09950F5F1F4F33
:1059E000C7CF8E858823C9F1682D772767FD70950D
:1059F0008FE790E00E94473580E090E08B15B0F48F
:105A0000F701218132812115310521F0F901E80FDB
:105A1000F91FA080A69E402D11242115310521F0EB
:105A2000F901E80FF91F40830196E8CFEF968881CE
:105A30009981DC01ED91FC910190F081E02DDF91E5
:105A4000CF911F910F91FF90EF90DF90CF90BF907B
:105A5000AF909F908F907F900994DF91CF911F918D
:105A60000F91FF90EF90DF90CF90BF90AF909F90FD
:105A70008F907F900895FC0110821282118281E044
:105A800087838FEF80871186748363837683658332
:105A900008950895FC012085838194812F3FA9F00A
:105AA00030E02F5F3F4FAC0184E0569547958A95D3
:105AB000E1F7249FC001259F900D349F900D112484
:105AC00024E0969587952A95E1F70895FC01808555
:105AD000681719F081E0818760870895FC0181854E
